{
  "_format": "hh-sol-artifact-1",
  "contractName": "ScrollFighter",
  "sourceName": "contracts/ScrollFighter.sol",
  "abi": [
    {
      "inputs": [
        {
          "internalType": "address",
          "name": "_verifier",
          "type": "address"
        }
      ],
      "stateMutability": "nonpayable",
      "type": "constructor"
    },
    {
      "anonymous": false,
      "inputs": [
        {
          "indexed": false,
          "internalType": "uint256",
          "name": "gameId",
          "type": "uint256"
        },
        {
          "indexed": false,
          "internalType": "address",
          "name": "player1",
          "type": "address"
        },
        {
          "indexed": false,
          "internalType": "address",
          "name": "player2",
          "type": "address"
        }
      ],
      "name": "FightersRevealed",
      "type": "event"
    },
    {
      "anonymous": false,
      "inputs": [
        {
          "indexed": false,
          "internalType": "uint256",
          "name": "gameId",
          "type": "uint256"
        },
        {
          "indexed": false,
          "internalType": "address",
          "name": "player1",
          "type": "address"
        },
        {
          "indexed": false,
          "internalType": "address",
          "name": "player2",
          "type": "address"
        },
        {
          "indexed": false,
          "internalType": "uint256",
          "name": "wageredAmount",
          "type": "uint256"
        }
      ],
      "name": "GameAccepted",
      "type": "event"
    },
    {
      "anonymous": false,
      "inputs": [
        {
          "indexed": false,
          "internalType": "uint256",
          "name": "gameId",
          "type": "uint256"
        },
        {
          "indexed": false,
          "internalType": "address",
          "name": "winner",
          "type": "address"
        }
      ],
      "name": "GameEnded",
      "type": "event"
    },
    {
      "anonymous": false,
      "inputs": [
        {
          "indexed": false,
          "internalType": "uint256",
          "name": "gameId",
          "type": "uint256"
        },
        {
          "indexed": false,
          "internalType": "address",
          "name": "player1",
          "type": "address"
        },
        {
          "indexed": false,
          "internalType": "address",
          "name": "player2",
          "type": "address"
        },
        {
          "indexed": false,
          "internalType": "uint256",
          "name": "wageredAmount",
          "type": "uint256"
        }
      ],
      "name": "GameProposed",
      "type": "event"
    },
    {
      "inputs": [
        {
          "internalType": "uint256",
          "name": "_gameId",
          "type": "uint256"
        },
        {
          "internalType": "bytes32",
          "name": "hashCommitment",
          "type": "bytes32"
        }
      ],
      "name": "acceptGame",
      "outputs": [],
      "stateMutability": "payable",
      "type": "function"
    },
    {
      "inputs": [
        {
          "internalType": "uint256",
          "name": "",
          "type": "uint256"
        }
      ],
      "name": "fighters",
      "outputs": [
        {
          "internalType": "uint256",
          "name": "id",
          "type": "uint256"
        },
        {
          "internalType": "uint256",
          "name": "hp",
          "type": "uint256"
        }
      ],
      "stateMutability": "view",
      "type": "function"
    },
    {
      "inputs": [
        {
          "internalType": "uint256",
          "name": "gameId",
          "type": "uint256"
        }
      ],
      "name": "getGame",
      "outputs": [
        {
          "internalType": "address[2]",
          "name": "",
          "type": "address[2]"
        },
        {
          "internalType": "uint256[2]",
          "name": "",
          "type": "uint256[2]"
        },
        {
          "internalType": "bool[2]",
          "name": "",
          "type": "bool[2]"
        }
      ],
      "stateMutability": "view",
      "type": "function"
    },
    {
      "inputs": [],
      "name": "nextGameId",
      "outputs": [
        {
          "internalType": "uint256",
          "name": "",
          "type": "uint256"
        }
      ],
      "stateMutability": "view",
      "type": "function"
    },
    {
      "inputs": [
        {
          "internalType": "uint256",
          "name": "gameId",
          "type": "uint256"
        }
      ],
      "name": "playGame",
      "outputs": [],
      "stateMutability": "nonpayable",
      "type": "function"
    },
    {
      "inputs": [
        {
          "internalType": "address",
          "name": "_opponent",
          "type": "address"
        },
        {
          "internalType": "bytes32",
          "name": "hashCommitment",
          "type": "bytes32"
        }
      ],
      "name": "proposeGame",
      "outputs": [],
      "stateMutability": "payable",
      "type": "function"
    },
    {
      "inputs": [
        {
          "internalType": "uint256",
          "name": "gameId",
          "type": "uint256"
        },
        {
          "internalType": "uint256",
          "name": "fighterID",
          "type": "uint256"
        },
        {
          "internalType": "uint256[3]",
          "name": "moves",
          "type": "uint256[3]"
        },
        {
          "internalType": "uint256",
          "name": "nonce",
          "type": "uint256"
        },
        {
          "internalType": "bytes",
          "name": "proof",
          "type": "bytes"
        }
      ],
      "name": "revealFighter",
      "outputs": [],
      "stateMutability": "nonpayable",
      "type": "function"
    }
  ],
  "bytecode": "0x6080604052600160035534801561001557600080fd5b506040516116d23803806116d28339810160408190526100349161017c565b604080518082018252600180825260026020808401828152600084815284835294517fcc69885fda6bcc1a4ace058b4a62bf5e179ea78fd58a1ccd71c22cc9b688792f55517fcc69885fda6bcc1a4ace058b4a62bf5e179ea78fd58a1ccd71c22cc9b6887930558451808601865282815280820183815283865284835290517fd9d16d34ffb15ba3a3d852f0d403e2ce1d691fb54de27ac87cd2f993f3ec330f55517fd9d16d34ffb15ba3a3d852f0d403e2ce1d691fb54de27ac87cd2f993f3ec3310558451808601909552600380865285820192835284529190915291517f7dfe757ecd65cbd7922a9c0161e935dd7fdbcc0e999689c7d31633896b1fc60b5590517f7dfe757ecd65cbd7922a9c0161e935dd7fdbcc0e999689c7d31633896b1fc60c5580546001600160a01b0319166001600160a01b03929092169190911790556101ac565b60006020828403121561018e57600080fd5b81516001600160a01b03811681146101a557600080fd5b9392505050565b611517806101bb6000396000f3fe6080604052600436106100705760003560e01c80635873533d1161004e5780635873533d146100eb5780636a59c5fa1461010b578063a2f77bcc1461012b578063b135bbb01461015a57600080fd5b80632e6b221d1461007557806340f0534b146100c357806353e13896146100d8575b600080fd5b34801561008157600080fd5b506100a961009036600461117a565b6001602081905260009182526040909120805491015482565b604080519283526020830191909152015b60405180910390f35b6100d66100d1366004611193565b61017e565b005b6100d66100e63660046111b5565b610351565b3480156100f757600080fd5b506100d661010636600461117a565b6105cb565b34801561011757600080fd5b506100d6610126366004611203565b61092f565b34801561013757600080fd5b5061014b61014636600461117a565b610caf565b6040516100ba939291906112e7565b34801561016657600080fd5b5061017060035481565b6040519081526020016100ba565b6000828152600260205260408120600f015460ff1660038111156101a4576101a4611379565b146101f65760405162461bcd60e51b815260206004820152601e60248201527f47616d65206d75737420626520696e2070726f706f736564207374617465000060448201526064015b60405180910390fd5b60008281526002602052604090206001015434146102565760405162461bcd60e51b815260206004820152601960248201527f5761676572656420616d6f756e74206d757374206d617463680000000000000060448201526064016101ed565b6000828152600260205260409020600301546001600160a01b031633146102cd5760405162461bcd60e51b815260206004820152602560248201527f4f6e6c7920746865206f70706f6e656e742063616e20616363657074207468656044820152642067616d6560d81b60648201526084016101ed565b600082815260026020818152604092839020600f81018054600160ff199091168117909155600582018690559281015492015483518681526001600160a01b03909316918301919091523382840152606082015290517f21fb37482c91023b372808e29dd04194ce89b61eb3fc00eba3af28d43a91f8699181900360800190a15050565b6001600160a01b0382161580159061037257506001600160a01b0382163314155b6103be5760405162461bcd60e51b815260206004820152601860248201527f496e76616c6964206f70706f6e656e742061646472657373000000000000000060448201526064016101ed565b60038054600091826103cf836113bb565b909155506040805161012081018252828152346020808301918252835180850185523381526001600160a01b0389168183015283850190815284518086018652888152600081840181905260608087019290925286518088018852818152808501829052608080880191909152875160a08082018a52818a0184815282860185905292820184905291815288519384018952828452838601839052838901839052808601939093528601919091528551808701875281815280840182905260c086015260e0850181905261010085018190528681526002928390529490942083518155915160018301559251939450909290916104cf9183820191610f71565b5060608201516104e59060048301906002610fc9565b5060808201516104fb9060068301906002610fc9565b5060a08201516105119060088301906002610ff7565b5060c082015161052790600e830190600261103e565b5060e0820151600f8201805460ff1916600183600381111561054b5761054b611379565b021790555061010091820151600f919091018054610100600160a81b0319166001600160a01b039283169093029290921790915560408051838152336020820152918516908201523460608201527f92ed5225f997614241753c97f8dff081ab07610d11f06f0c031e4421679af13f9060800160405180910390a1505050565b600081815260026020819052604082208392910101546001600160a01b031633148061061057506000818152600260205260409020600301546001600160a01b031633145b6106685760405162461bcd60e51b815260206004820152602360248201527f43616c6c6572206973206e6f74206120706c6179657220696e20746869732067604482015262616d6560e81b60648201526084016101ed565b60026000838152600260205260409020600f015460ff16600381111561069057610690611379565b146106dd5760405162461bcd60e51b815260206004820152601d60248201527f47616d65206d75737420626520696e207374617274656420737461746500000060448201526064016101ed565b60008281526002602052604081206006810154600782015491929091905b600381101561091157600083815260016020819052604090912001541580610733575060008281526001602081905260409091200154155b15610919576040805161012081018252855481526001860154602082015281518083018084526109119388929084019160028085019182845b81546001600160a01b0316815260019091019060200180831161076c575050509183525050604080518082019182905260209092019190600484019060029082845b8154815260200190600101908083116107ae575050509183525050604080518082019182905260209092019190600684019060029082845b8154815260200190600101908083116107e6575050509183525050604080518082019091526020909101906008830160026000835b828210156108625760408051606081019182905290600384810287019182845b81548152602001906001019080831161083b5750505050508152602001906001019061081b565b50505090825250604080518082019182905260209092019190600e840190600290826000855b825461010083900a900460ff16151581526020600192830181810494850194909303909202910180841161088857505050928452505050600f82015460209091019060ff1660038111156108de576108de611379565b60038111156108ef576108ef611379565b8152600f919091015461010090046001600160a01b0316602090910152610da7565b505050505050565b80610923816113bb565b9150506106fb565b5050565b60016000868152600260205260409020600f015460ff16600381111561095757610957611379565b146109a45760405162461bcd60e51b815260206004820152601e60248201527f47616d65206d75737420626520696e206163636570746564207374617465000060448201526064016101ed565b60008581526002602081905260408220919082018101546001600160a01b031633146109d15760016109d4565b60005b60ff16905060008686866040516020016109f0939291906113d4565b60405160208183030381529060405280519060200120905060008686604051602001610a1d9291906113f0565b604051602081830303815290604052805190602001209050836004018360028110610a4a57610a4a61138f565b01548214610a905760405162461bcd60e51b8152602060048201526013602482015272086dedadad2e8dacadce840dad2e6dac2e8c6d606b1b60448201526064016101ed565b604080516001808252818301909252600091602080830190803683370190505090508281600081518110610ac657610ac661138f565b6020908102919091010152600054604051633a94343960e21b81526001600160a01b039091169063ea50d0e490610b039089908590600401611405565b602060405180830381865afa158015610b20573d6000803e3d6000fd5b505050506040513d601f19601f82011682018060405250810190610b44919061149b565b610b805760405162461bcd60e51b815260206004820152600d60248201526c24b73b30b634b210383937b7b360991b60448201526064016101ed565b88856006018560028110610b9657610b9661138f565b015587600886018560028110610bae57610bae61138f565b60030201906003610bc09291906110cb565b50600185600e018560028110610bd857610bd861138f565b602091828204019190066101000a81548160ff02191690831515021790555084600e01600060028110610c0d57610c0d61138f565b602081049091015460ff601f9092166101000a9004168015610c385750600e850154610100900460ff165b15610ca357600f85018054600260ff1990911681179091558501546003860154604080518d81526001600160a01b0393841660208201529290911682820152517f48ceffa3b4098d9e516024a3bd0c3c706ad2a879643f548cc4738fc7d74a0b999181900360600190a15b50505050505050505050565b610cb76110f9565b610cbf6110f9565b610cc76110f9565b6000848152600260208190526040918290208251808401938490529092838301926006850192600e8601929091859182845b81546001600160a01b03168152600190910190602001808311610cf9575050604080518082019182905294975086935060029250905082845b815481526020019060010190808311610d325750506040805180820191829052949650859350600292509050826000855b825461010083900a900460ff161515815260206001928301818104948501949093039092029101808411610d635750979d969c50939a509498505050505050505050565b608081018051602090810151600090815260019182905260408082208301549351518252902001541115610df657604081015160005b60200201516001600160a01b0316610100820152610e39565b608081018051602090810151600090815260019182905260408082208301549351518252902001541015610e305760408101516001610ddd565b60006101008201525b600360e08201528051610100820151604080519283526001600160a01b0390911660208301527f3d5fcd8fa3235aeb3897f25c8ea49989174981afcb01b9d03189d1056a16775b910160405180910390a16101008101516001600160a01b0316610f265760408181015151602083015191516001600160a01b039091169180156108fc02916000818181858888f19350505050158015610edd573d6000803e3d6000fd5b506040810151600160200201516001600160a01b03166108fc82602001519081150290604051600060405180830381858888f1935050505015801561092b573d6000803e3d6000fd5b8061010001516001600160a01b03166108fc82602001516002610f4991906114c4565b6040518115909202916000818181858888f1935050505015801561092b573d6000803e3d6000fd5b8260028101928215610fb9579160200282015b82811115610fb957825182546001600160a01b0319166001600160a01b03909116178255602090920191600190910190610f84565b50610fc5929150611117565b5090565b8260028101928215610fb9579160200282015b82811115610fb9578251825591602001919060010190610fdc565b600683019183908215611032579160200282015b82811115611032578251611022908390600361112c565b509160200191906003019061100b565b50610fc5929150611159565b600183019183908215610fb95791602002820160005b8382111561109157835183826101000a81548160ff0219169083151502179055509260200192600101602081600001049283019260010302611054565b80156110be5782816101000a81549060ff0219169055600101602081600001049283019260010302611091565b5050610fc5929150611117565b8260038101928215610fb9579160200282015b82811115610fb95782358255916020019190600101906110de565b60405180604001604052806002906020820280368337509192915050565b5b80821115610fc55760008155600101611118565b8260038101928215610fb95791602002820182811115610fb9578251825591602001919060010190610fdc565b80821115610fc5576000808255600182018190556002820155600301611159565b60006020828403121561118c57600080fd5b5035919050565b600080604083850312156111a657600080fd5b50508035926020909101359150565b600080604083850312156111c857600080fd5b82356001600160a01b03811681146111df57600080fd5b946020939093013593505050565b634e487b7160e01b600052604160045260246000fd5b600080600080600060e0868803121561121b57600080fd5b853594506020860135935060a086018781111561123757600080fd5b60408701935035915060c086013567ffffffffffffffff8082111561125b57600080fd5b818801915088601f83011261126f57600080fd5b813581811115611281576112816111ed565b604051601f8201601f19908116603f011681019083821181831017156112a9576112a96111ed565b816040528281528b60208487010111156112c257600080fd5b8260208601602083013760006020848301015280955050505050509295509295909350565b60c08101818560005b60028110156113185781516001600160a01b03168352602092830192909101906001016112f0565b505050604082018460005b6002811015611342578151835260209283019290910190600101611323565b505050608082018360005b600281101561136e578151151583526020928301929091019060010161134d565b505050949350505050565b634e487b7160e01b600052602160045260246000fd5b634e487b7160e01b600052603260045260246000fd5b634e487b7160e01b600052601160045260246000fd5b6000600182016113cd576113cd6113a5565b5060010190565b8381526060836020830137608081019190915260a00192915050565b60608382376060810191909152608001919050565b604081526000835180604084015260005b818110156114335760208187018101516060868401015201611416565b50600060608285010152601f19601f82011683019050606081016020606085840301818601528186518084526080850191508288019450600093505b8084101561148f578451825293820193600193909301929082019061146f565b50979650505050505050565b6000602082840312156114ad57600080fd5b815180151581146114bd57600080fd5b9392505050565b80820281158282048414176114db576114db6113a5565b9291505056fea2646970667358221220bd723d7d3a66cabf371606c1bb66bbf12f17c64fd718c76f743649f97576c52a64736f6c63430008110033",
  "linkReferences": {},
  "deployedLinkReferences": {}
}